:020000040000FA
:100000001F2AFF3FFF3F0000000000000000080023
:100010001D3083120313FC009130FD00FD0B0E28F0
:10002000FC0B0E280800423083120313FD00FD0B69
:1000300017280000080083120313F801F90110309B
:10004000FC00710DF80DF90D7408F8027508031C19
:10005000750FF902031833287408F8077508031898
:10006000750FF9070310F00DF10DFC0B21280800A6
:1000700083120317BB1B3F28031387134128031365
:10008000871703173B1B472803130713492803133C
:1000900007170317BB1A4F2803138712512803139E
:1000A000871603173B1A57280313071259280313FF
:1000B000071603171A185F2803130715612803137F
:1000C00007118715032087110317BB196A2803132B
:1000D00087136C280313871703173B197228031320
:1000E00007137428031307170317BB187A28031381
:1000F00087127C280313871603173B1882280313E3
:10010000071284280313071603171A188A280313E3
:1001100007158C2803130711871503208711031770
:100120001A1C94280820952813200800831203170E
:1001300013088A00120882000800831203171A109D
:100140003608BB00382003171A140800831203175F
:10015000B901053039020318B4283908380784007A
:1001600020308000B90AA9283908380784008001A6
:10017000B90339083807BA000A30F400F501360827
:10018000F0003708F1001B207808F0007908F10032
:100190003030F00703173A088400700880000A30F6
:1001A000F400F5013608F0003708F1001B20700854
:1001B0000317B6007108B70000307106031DE2286E
:1001C00000307006031DE528E728B903B9280800A8
:1001D0001D3083120313FD00FD0BEC280800831271
:1001E00003139F01C0309F046D09F000700883164F
:1001F0009F051F179F17831203172D08F000F00D9E
:100200007010F00D7010F00D7010700803139F0443
:100210001F14E8201F151F1D0F2900000B291F1098
:100220001E08F100F00183161E08F0040030F104EE
:1002300008002B29803083120317AD003E29C030FF
:10024000AD003E299430AD003E29D430AD003E29AA
:100250008030AD003E29831203172D08013A03199F
:100260001A292D08023A03191F292D08033A0319E8
:1002700022292D08043A0319252928292E03F000E4
:100280002D08F0077008AD007008BB003820031778
:100290001A10B00130082F078400000803195829EC
:1002A00030082F0784000008B6009D20B00A4A29B4
:1002B0001A14080083120317B201B3012D08B40009
:1002C0002E08B50080302E06F00080307002031D2D
:1002D0006B2900302D02031879290130B20000305B
:1002E000B3002D08003CB4002E08031C013EB501EC
:1002F000B5023408B6003508B7002F08B800A620AC
:100300000630B0000030B1003108003C031D8A29DE
:100310003008003C0318A52930082F07F2000130EF
:100320003002F0000030031C013E3102F100700881
:100330002F0784000008F000720884007008800015
:100340000130B002031CB10384292F08840020303F
:100350008000320833040319C329B001B101300809
:100360002F0784000008203A031DBA29B00A031998
:10037000B10AAF290130B002031CB10330082F07C6
:1003800084002D30800008008316031387110711A5
:100390000712871207138713831287110711871318
:1003A000071387120712082008200820871607164F
:1003B000871503208711082087150320871108203F
:1003C000871503208711082007128715032087113E
:1003D00008208715032087118712871787150320A8
:1003E0008711082087130716871503208711071226
:1003F000871503208711082087150320871107160A
:1004000087150320871108200712871503208711FD
:1004100087170717871607168715032087110820E7
:1004200003171A14080096208A110A128000840A01
:10043000920A0319930AF003031D132A0800EC2300
:100440008030831603139F00FF30850086018701EB
:10045000C4210C30BB00382001300317BB0038200A
:1004600001300317AD000330AE005330AF00192147
:100470000230AD000230AE004830AF001921153017
:10048000FB004B30FC00BE30FD00FD0B452AFC0B91
:10049000452AFB0B452A00000130BB003820013003
:1004A0000317AD000130AE003D30AF00192102301E
:1004B000AD000230AE002E30AF0019211530FB0028
:1004C0004B30FC00BE30FD00FD0B642AFC0B642A9F
:1004D000FB0B642A00000130BB00382001300317F9
:1004E000AD000130AE002030AF0019210230AD0068
:1004F0000130AE00A030AF0019211530FB004B30A9
:10050000FC00BE30FD00FD0B832AFC0B832AFB0B95
:10051000832A00000130BB00382001300317AD00F2
:100520000130AE00E030AF0019210230AD000130E3
:10053000AE00CC30AF0019211530FB004B30FC0071
:10054000BE30FD00FD0BA22AFC0BA22AFB0BA22A47
:1005500000000130BB0038200B30FB002630FC00CF
:100560005D30FD00FD0BB22AFC0BB22AFB0BB22A58
:10057000000000000317AD01EF207008831203177D
:100580009B0071089C007008AD007108AE001D3022
:10059000AF005A21900191010313EE01EF010317FF
:1005A00010081D3E84000008203A031DDB2A900A33
:1005B0000319910ACF2A10081D3E84000008003A52
:1005C0000319F92A03136E08143EF10003171008EB
:1005D0001D3E84000008F00071088400700880004F
:1005E0000313EE0A0319EF0A0317900A0319910A7D
:1005F000DB2A03136E08143E8400800101300317C8
:10060000BB0038203430FC00F130FD00FD0B062B20
:10061000FC0B062B00000000013003171C02031D19
:10062000132BF4301B0203181E2B0130AD000330D6
:10063000AE00B330AF0019210614262B0130AD00F7
:100640000230AE005E30AF00192106100230AD005E
:100650000130AE00C030AF0019210230AD000830CB
:10066000AE001430AF0019210B30FB002630FC0027
:100670005D30FD00FD0B3A2BFC0B3A2BFB0B3A2BAC
:1006800000000000BA2A432BFF3FFF3FFF3FFF3F20
:10069000FF3F49346634203469347434273473346A
:1006A00020346434613472346B342C340034433479
:1006B0006F346E34743472346F346C342034533489
:1006C00079347334743465346D34003441347534A2
:1006D00074346F3420344C3469346734683474347F
:1006E0000034443452343A34533468346534723408
:1006F000653465346E340034573465346C34633497
:100700006F346D34653420343A34293400344C3439
:1007100069346734683474343A34203420342034F3
:100720002034203400346C346934673468347434D1
:100730002034773469346C346C3420347434753438
:1007400072346E3420344F344634463400344934E5
:10075000663420346934743427347334203462347A
:10076000723469346734683474342C3400346C3433
:1007700069346734683474342034773469346C34C1
:100780006C3420347434753472346E3420344F3405
:100790004E34003452346F346F346D342034693445
:1007A0007334203442345234493447344834543456
:1007B000003452346F346F346D3420346934733400
:1007C00020344434413452344B3400340034003447
:1007D000003400340F34FF3F203084003E30831259
:1007E0000313F000493003179200033093001322E3
:1007F000A0308400133083120313F000B7300317C6
:1008000092000330930013225E3084000F30831275
:100810000313F000CA300317920003309300132231
:10082000B33084000D3083120313F000D930031766
:1008300092000330930013226D3084000130831244
:100840000313F000EA3003179200033093001322E1
:10085000C0308400303083120313F0008730031758
:1008600092000330930013226E3084000230831212
:100870000313F000E63003179200033093001322B5
:10088000103083178400023083120313F000E83025
:100890000317920003309300132283130800FF3FD5
:1008A000FF3FFF3FFF3FFF3FFF3FFF3FFF3FFF3F58
:1008B000FF3FFF3FFF3FFF3FFF3FFF3FFF3FFF3F48
:1008C000FF3FFF3FFF3FFF3FFF3FFF3FFF3FFF3F38
:1008D000FF3FFF3FFF3FFF3FFF3FFF3FFF3FFF3F28
:04400E007A3FFF3FB7
:00000001FF
